:020000040800F2
:1000000088060020CD010008490C00084B0C0008B0
:100010004F0C0008530C0008570C000800000000AB
:100020000000000000000000000000005B0C000861
:100030005D0C0008000000005F0C0008610C000867
:10004000E7010008E7010008E7010008E7010008F0
:10005000E7010008E7010008E7010008E7010008E0
:10006000E7010008E7010008E7010008E7010008D0
:10007000E7010008E7010008E7010008E7010008C0
:10008000E7010008E7010008E7010008E7010008B0
:10009000E7010008E7010008E7010008E7010008A0
:1000A000E7010008E7010008E7010008E701000890
:1000B000E7010008E7010008E7010008E701000880
:1000C000E7010008E7010008E7010008E701000870
:1000D000E7010008E7010008E7010008E701000860
:1000E000E7010008E7010008E7010008E701000850
:1000F000E7010008E7010008E7010008E701000840
:10010000E7010008E7010008E7010008E70100082F
:10011000E7010008E7010008E7010008E70100081F
:10012000E7010008E7010008E7010008E70100080F
:1001300000F002F800F03AF80AA090E8000C8244BF
:100140008344AAF10107DA4501D100F02FF8AFF29C
:10015000090EBAE80F0013F0010F18BFFB1A43F0A5
:10016000010318476418000084180000103A24BFE7
:1001700078C878C1FAD8520724BF30C830C144BF0C
:1001800004680C607047000000230024002500264E
:10019000103A28BF78C1FBD8520728BF30C148BFEA
:1001A0000B6070471FB51FBD10B510BD01F0D1FB2E
:1001B0001146FFF7F7FF00F03BF801F0EFFB03B447
:1001C000FFF7F2FF03BC01F0F7FB0000094880478E
:1001D00009480047FEE7FEE7FEE7FEE7FEE7FEE729
:1001E000FEE7FEE7FEE7FEE704480549054A064B41
:1001F000704700004B1800083101000888000020FB
:1002000088060020880200208802002001B581B005
:1002100040F27711019848430321C1EB0010009090
:1002200002E00098401E009000980028F9D10CBD13
:1002300008B50121042001F031F80121082001F066
:100240002DF80121084601F029F84FF00070FE4911
:1002500048600121042001F021F84FF41C40ADF862
:10026000000010208DF8030002208DF8020069467E
:10027000F64800F057FD0121082001F00FF840F684
:10028000F870ADF8000010208DF8030002208DF802
:1002900002006946EE4800F045FD0121102000F003
:1002A000FDFF4FF4F840ADF8000010208DF803007A
:1002B00002208DF802006946E64800F033FD012176
:1002C000202000F0EBFF47F6F070ADF800001020A2
:1002D0008DF8030002208DF802006946DE4800F028
:1002E00021FD0121402000F0D9FF4FF67F00ADF83D
:1002F000000010208DF8030002208DF802006946EE
:10030000D64800F00FFD00F04FFC0221CF4800F06E
:10031000B6FD4FF48051CF4800F0B3FD4FF40061BB
:10032000CC4800F0AEFD4FF48061CA4800F0A9FD52
:100330004FF40041C54800F0A4FD4FF48051C3487C
:1003400000F09FFD4FF40061C04800F09AFD4FF4AB
:100350008061BE4800F095FD4FF48041BE4800F03A
:1003600090FD4FF40051BC4800F08BFD4FF48051DC
:10037000B94800F086FD4FF40061B74800F081FDF8
:100380004FF48061B44800F07CFD4FF40071B24836
:1003900000F077FD4FF48071AF4800F072FD4FF42C
:1003A0000061AB4800F06DFD4FF48061A84800F09B
:1003B00068FD4FF40041A94800F063FD4FF480410F
:1003C000A64800F05EFD4FF40051A44800F059FD2E
:1003D0004FF48051A14800F054FD4FF480419D48F6
:1003E00000F04FFD4FF400519A4800F04AFD4021C3
:1003F0009A4800F046FD2021984800F042FD102167
:10040000964800F03EFD0821944800F03AFD042192
:10041000924800F036FD0221904800F032FD0121A3
:100420008E4800F02EFD4FF40071894800F029FD40
:100430004FF48071864800F024FD8021844800F04C
:1004400020FD4021824800F01CFD2021804800F062
:1004500018FD10217E4800F014FD08217C4800F0B2
:1004600010FD80217C4800F00CFD40217A4800F00E
:1004700008FD2021784800F004FD1021764800F0A6
:1004800000FD4FF4FA70FFF7C1FE84E34121744888
:1004900001F0A4F84FF40061704800F0F2FC4FF452
:1004A000FA70FFF7B3FE01216D4801F097F84FF4A1
:1004B0008051684800F0E3FC4FF4FA70FFF7A6FEA5
:1004C0004FF48051634800F0DCFC4FF4FA70FFF702
:1004D0009DFE0221624801F081F84FF400615D4801
:1004E00000F0CDFC4FF4FA70FFF790FE4FF400617E
:1004F000584800F0C6FC4FF4FA70FFF787FE03215E
:10050000574801F06BF84FF48061524800F0B7FC97
:100510004FF4FA70FFF77AFE4FF480614D4800F017
:10052000B0FC4FF4FA70FFF771FE04214C4801F063
:1005300055F84FF40041454800F0A1FC4FF4FA7023
:10054000FFF764FE4FF40041404800F09AFC4FF47E
:10055000FA70FFF75BFE0521414801F03FF84FF4C8
:1005600080513A4800F08BFC4FF4FA70FFF74EFED2
:100570004FF48051354800F084FC4FF4FA70FFF7D7
:1005800045FE0621364801F029F84FF400612F4856
:1005900000F075FC4FF4FA70FFF738FE4FF400617D
:1005A0002A4800F06EFC4FF4FA70FFF72FFE072187
:1005B0002B4801F013F84FF48061244800F05FFCF1
:1005C0004FF4FA70FFF722FE4FF480611F4800F0ED
:1005D00058FC4FF4FA70FFF719FE0821204800F08C
:1005E000FDFF4FF480411C4800F049FC4FF4FA70C5
:1005F000FFF70CFE4FF48041174800F042FC4FF427
:10060000FA70FFF703FE0921154800F0E7FF4FF4E9
:100610000051114800F033FC4FF4FA70FFF7F6FD7B
:100620004FF400510C4800F02CFC4FF4FA70FFF727
:10063000EDFD10210A4800F0D1FF4FF4805106482B
:1006400000F01DFC0EE00000000001400008014029
:10065000000C01400010014000140140001801404E
:10066000004400404FF4FA70FFF7D0FD4FF4805182
:10067000FE4800F006FC4FF4FA70FFF7C7FD1121A9
:10068000FB4800F0ABFF4FF40061F84800F0F7FBC7
:100690004FF4FA70FFF7BAFD4FF40061F34800F031
:1006A000F0FB4FF4FA70FFF7B1FD1221F04800F0B3
:1006B00095FF4FF48061ED4800F0E1FB4FF4FA70D4
:1006C000FFF7A4FD4FF48061E84800F0DAFB4FF437
:1006D000FA70FFF79BFD1321E54800F07FFF4FF410
:1006E0000071E24800F0CBFB4FF4FA70FFF78EFD8B
:1006F0004FF40071DD4800F0C4FB4FF4FA70FFF7CF
:1007000085FD1421DA4800F069FF4FF48071D74865
:1007100000F0B5FB4FF4FA70FFF778FD4FF48071ED
:10072000D24800F0AEFB4FF4FA70FFF76FFD1521D1
:10073000CF4800F053FF4FF40061CE4800F09FFB1C
:100740004FF4FA70FFF762FD4FF40061C94800F002
:1007500098FB4FF4FA70FFF759FD1621C44800F0DA
:100760003DFF4FF48061C34800F089FB4FF4FA70FD
:10077000FFF74CFD4FF48061BE4800F082FB4FF460
:10078000FA70FFF743FD1721B94800F027FF4FF437
:100790000041B94800F073FB4FF4FA70FFF736FDE3
:1007A0004FF40041B44800F06CFB4FF4FA70FFF7CF
:1007B0002DFD1821AE4800F011FF4FF48041AE48E6
:1007C00000F05DFB4FF4FA70FFF720FD4FF480411D
:1007D000A94800F056FB4FF4FA70FFF717FD1921F6
:1007E000A34800F0FBFE4FF40051A34800F047FB84
:1007F0004FF4FA70FFF70AFD4FF400519E4800F0E5
:1008000040FB4FF4FA70FFF701FD2021984800F0FB
:10081000E5FE4FF48051984800F031FB4FF4FA7038
:10082000FFF7F4FC4FF48051934800F02AFB4FF49B
:10083000FA70FFF7EBFC21218D4800F0CFFE4FF45A
:1008400080418E4800F01BFB4FF4FA70FFF7DEFC8E
:100850004FF48041894800F014FB4FF4FA70FFF721
:10086000D5FC2221824800F0B9FE4FF400518348A4
:1008700000F005FB4FF4FA70FFF7C8FC4FF400518D
:100880007E4800F0FEFA4FF4FA70FFF7BFFC232118
:10089000774800F0A3FE4021774800F0F0FA4FF4CB
:1008A000FA70FFF7B3FC4021734800F0EAFA4FF406
:1008B000FA70FFF7ABFC24216D4800F08FFE202179
:1008C0006D4800F0DCFA4FF4FA70FFF79FFC20212E
:1008D000694800F0D6FA4FF4FA70FFF797FC25212B
:1008E000634800F07BFE1021634800F0C8FA4FF423
:1008F000FA70FFF78BFC10215F4800F0C2FA4FF44A
:10090000FA70FFF783FC2621594800F067FE0821A2
:10091000594800F0B4FA4FF4FA70FFF777FC082159
:10092000554800F0AEFA4FF4FA70FFF76FFC27213C
:100930004F4800F053FE04214F4800F0A0FA4FF456
:10094000FA70FFF763FC04214B4800F09AFA4FF469
:10095000FA70FFF75BFC2821454800F03FFE0221BA
:10096000454800F08CFA4FF4FA70FFF74FFC022173
:10097000414800F086FA4FF4FA70FFF747FC29214E
:100980003B4800F02BFE01213B4800F078FA4FF481
:10099000FA70FFF73BFC0121374800F072FA4FF480
:1009A000FA70FFF733FC3021314800F017FE4FF4A6
:1009B0000071304800F063FA4FF4FA70FFF726FC3C
:1009C0004FF400712B4800F05CFA4FF4FA70FFF717
:1009D0001DFC3121264800F001FE4FF480712548AE
:1009E00000F04DFA4FF4FA70FFF710FC4FF48071ED
:1009F000204800F046FA4FF4FA70FFF707FC322166
:100A00001B4800F0EBFD80211A4800F038FA4FF443
:100A1000FA70FFF7FBFB8021164800F032FA4FF422
:100A2000FA70FFF7F3FB3321114800F0D7FD4021A6
:100A3000104800F024FA4FF4FA70FFF7E7FB40216A
:100A40000C4800F01EFA4FF4FA70FFF7DFFB342178
:100A5000074800F0C3FD2021064800F010FA4FF4CB
:100A6000FA70FFF7D3FB2021024809E0001401408F
:100A700000440040000C01400018014000100140FB
:100A800000F0FFF94FF4FA70FFF7C0FB3521424840
:100A900000F0A4FD1021414800F0F1F94FF4FA7084
:100AA000FFF7B4FB10213D4800F0EBF94FF4FA706A
:100AB000FFF7ACFB3621384800F090FD082137489D
:100AC00000F0DDF94FF4FA70FFF7A0FB082133487E
:100AD00000F0D7F94FF4FA70FFF798FB37212E4852
:100AE00000F07CFD80212E4800F0C9F94FF4FA7027
:100AF000FFF78CFB80212A4800F0C3F94FF4FA700D
:100B0000FFF784FB3821244800F068FD4021244889
:100B100000F0B5F94FF4FA70FFF778FB4021204858
:100B200000F0AFF94FF4FA70FFF770FB39211A4863
:100B300000F054FD20211A4800F0A1F94FF4FA709A
:100B4000FFF764FB2021164800F09BF94FF4FA7080
:100B5000FFF75CFB4021104800F040FD10211048D9
:100B600000F08DF94FF4FA70FFF750FB10210C489C
:100B700000F087F94FF4FA70FFF748FB412106486F
:100B800000F02CFD4FF40061064800F078F94FF4B6
:100B9000FA70FFF73BFB79E400440040000C014091
:100BA000001401400018014000B585B0012148043F
:100BB00000F081FB0121042000F070FB4FF416507F
:100BC00000900020ADF80400ADF80600ADF8080074
:100BD000ADF80C000C20ADF80A006946184800F08A
:100BE00004FC0121164800F08CFC0420ADF8100034
:100BF00018208DF8130002208DF8120004A9114866
:100C000000F090F80820ADF8100004208DF81300D3
:100C100004A90C4800F086F80220ADF8100010205E
:100C20008DF8130002208DF8120004A9054800F089
:100C300079F80221034800F024F905B000BD000056
:100C40000044004000080140704700BFFEE700BFBD
:100C5000FEE700BFFEE700BFFEE770477047704742
:100C60007047000010B50446CC48844208D10121E9
:100C7000042000F02DFB0021042000F029FB46E0B9
:100C8000C748844208D10121082000F021FB00213F
:100C9000082000F01DFB3AE0C248844208D101213F
:100CA000102000F015FB0021102000F011FB2EE0B9
:100CB000BD48844208D10121202000F009FB002119
:100CC000202000F005FB22E0B848844208D1012131
:100CD000402000F0FDFA0021402000F0F9FA16E073
:100CE000B348844208D10121802000F0F1FA0021AC
:100CF000802000F0EDFA0AE0AE48844207D10121DD
:100D0000801500F0E5FA0021A01500F0E1FA10BD11
:100D100010B50121084600F0DBFA0021012000F0A7
:100D2000D7FA10BD2DE9F04102460025002600202B
:100D300000230024002791F803C00CF00F0591F860
:100D400003C00CF0100CBCF1000F03D091F802C0EE
:100D50004CEA050591F800C0BCF1000F31D01468D1
:100D600000202BE04FF0010C0CFA00F3B1F800C0AA
:100D70000CEA03069E4220D183004FF00F0C0CFAC0
:100D800003F7BC4305FA03FC4CEA040491F803C0E2
:100D9000BCF1280F06D14FF0010C0CFA00FCC2F890
:100DA00014C00AE091F803C0BCF1480F05D14FF020
:100DB000010C0CFA00FCC2F810C0401C0828D1D36A
:100DC0001460B1F800C0BCF1FF0F34DD546800209E
:100DD0002EE000F1080C4FF0010808FA0CF3B1F80E
:100DE00000C00CEA03069E4221D183004FF00F0C95
:100DF0000CFA03F7BC4305FA03FC4CEA040491F82F
:100E000003C0BCF1280F05D100F1080C08FA0CF85A
:100E1000C2F8148091F803C0BCF1480F07D100F16B
:100E2000080C4FF0010808FA0CF8C2F81080401CBA
:100E30000828CED35460BDE8F0814FF6FF710180E1
:100E4000022181700421C17070470246002093681E
:100E50000B400BB1012000E000207047014688687C
:100E600080B2704702460020D3680B400BB10120CE
:100E700000E0002070470146C86880B270470161F9
:100E80007047416170470AB1016100E041617047FC
:100E9000C16070474FF480320A4382618161826190
:100EA00082698269704702460020434B18684FF6FA
:100EB0008073184040EA021008433F4B18607047A7
:100EC0003E49C8617047F0B50A460023002400215E
:100ED000002500F00046B6F1004F02D1364EF16910
:100EE00001E0354E7168C0F3034583B200F440164B
:100EF000B6F5401F08D121F070612F4E766826F0BC
:100F000070662D4F7E6012E000F48016B6F5801FEB
:100F100006D1032606FA05F4A14341F0706106E00C
:100F2000460D360103FA06F6B14341F0706122B175
:100F3000460D360103FA06F6314300F00046B6F1DD
:100F4000004F02D11C4EF16101E01B4E7160F0BDFB
:100F500030B500228B071C0F0F2303FA04F2164B47
:100F600008338C1053F824309343134C08348D10FD
:100F700044F8253023468C1053F824308C07240F76
:100F800000FA04F423430C4C08348D1044F8253047
:100F900030BD0A49DC31086070470000000801409C
:100FA000000C0140001001400014014000180140F5
:100FB000001C0140002001400000014000002042D0
:100FC000DF48006840F00100DD49086008464068DD
:100FD000DC490840DA49486008460068DA490840B8
:100FE000D74908600846006820F480200860084659
:100FF000406820F4FE0048604FF41F00886070478E
:10100000CF49096821F48031CD4A11601146096841
:1010100021F480211160B0F5803F03D0B0F5802F1E
:101020000ED106E0C649096841F48031C44A116016
:1010300007E0C349096841F4A021C14A116000E0FA
:1010400000BF00BF704710B50146002200230020FA
:101050004A11012A02D1BA4C236806E0022A02D1C1
:10106000B74C236A01E0B64C636A01F01F02012409
:1010700094401C400CB1012000E0002010BD38B5A8
:10108000002000900024002500BF3120FFF7DBFF87
:1010900005460098401C00900098B0F5A06F01D064
:1010A000002DF2D03120FFF7CEFF08B1012400E07F
:1010B0000024204638BD01460020A14A106820F0D7
:1010C000F80040EAC10010607047A049086070470E
:1010D000024600209A4B586820F47C1042EA010333
:1010E0001843974B58607047984908667047014607
:1010F0000020934A506820F0030008435060704776
:101100008F48406800F00C007047014600208C4A70
:10111000506820F0F00008435060704701460020FE
:10112000874A506820F4E0600843506070470146E9
:101130000020834A506820F4605040EAC1005060AB
:10114000704729B17E4A527A02437D4B5A7204E0BD
:101150007B4A527A82437A4B5A7270477B49D83124
:101160000860704701460020754A506820F44040EE
:101170000843506070470021714A20321170704A54
:1011800082F82010012802D004280AD104E00121AD
:101190006B4A2032117005E00521694A2032117036
:1011A00000E000BF00BF70476949086070476449AC
:1011B000096A0143624A116270476549443908600F
:1011C000704730B500210022002400235C4D6D687B
:1011D00005F00C0121B1042905D0082923D105E02F
:1011E0005C4D056022E05B4D05601FE0544D6D686D
:1011F00005F47012524D6D6805F48034022505EB3C
:1012000092421CB9544D554305600BE04C4D6D683E
:1012100005F400351DB1504D5543056002E04D4DBC
:101220005543056002E04B4D056000BF00BF444DD3
:101230006D6805F0F0010909484D6B5C0568DD40FB
:1012400045603F4D6D6805F4E061090A434D6B5CF4
:101250004568DD4085603A4D6D6805F46051C90A06
:101260003E4D6B5C4568DD40C560354D6D6805F4ED
:101270004041890B3A4D6B5CC568B5FBF3F50561E0
:1012800030BD29B12E4A526902432D4B5A6104E008
:101290002B4A526982432A4B5A61704729B1284A26
:1012A00092690243264B9A6104E0254A926982437F
:1012B000234B9A61704729B1214AD2690243204BDE
:1012C000DA6104E01E4AD26982431D4BDA6170473D
:1012D00029B11B4AD2680243194BDA6004E0184A6C
:1012E000D2688243164BDA60704729B1144A1269FA
:1012F0000243134B1A6104E0114A12698243104BF6
:101300001A61704712494039086070470F49C86434
:1013100070470B49C87170470948406A40F08070B7
:1013200007494862704701460020054A92680A4012
:101330000AB1012000E0002070470149887270471F
:10134000001002400000FFF8FFFFF6FE00004242DE
:101350008004424200127A0000093D000000002093
:101360001000002010B50446FB48844209D1012139
:101370008803FFF7ADFF00214FF48040FFF7A8FF7F
:1013800032E0F648844209D101214804FFF7ADFF5D
:1013900000214FF40030FFF7A8FF25E0F048844219
:1013A00009D101218804FFF7A0FF00214FF480201C
:1013B000FFF79BFF18E0EB48844209D10121C804E4
:1013C000FFF793FF00214FF40020FFF78EFF0BE0A3
:1013D000E548844208D101210805FFF786FF002176
:1013E0004FF48010FFF781FF10BD2DE9F04786B064
:1013F00005460E460024A24600BFA1460027B0893C
:1014000000B100BF2F462C8A4CF6FF700440F088D4
:1014100004432C82AC894EF6F3100440B088318925
:101420000843718908430443AC81AC8A4FF6FF40FE
:101430000440B0890443AC8201A8FFF7C2FEC6484D
:10144000874202D1DDF810A001E0DDF80CA0A889E8
:1014500000F4004040B10AEBCA0000EB0A1031680A
:101460004900B0FBF1F807E00AEBCA0000EB0A10F4
:1014700031688900B0FBF1F86420B8FBF0F004019A
:101480002009642101FB1089A88900F4004040B1C3
:10149000322000EBC900B0FBF1F000F0070004437C
:1014A00008E0322000EB09106421B0FBF1F000F0FD
:1014B0000F0004432C8106B0BDE8F0874FF41651AD
:1014C000016000218180C18001810C2141810021C6
:1014D0008181704710B502460020108A4FF2FF0349
:1014E00018400B884C8823438C882343CC882343A3
:1014F0001843108210BD0021018041808180C1808D
:10150000704721B1828942F40052828104E08289CD
:101510004DF6FF731A4082817047F0B503460024F0
:1015200000260025002040F66A17B94200D100BF0E
:101530001846C1F3421401F01F06012707FA06F509
:10154000012C01D10C3004E0022C01D1103000E05C
:1015500014301AB107682F43076002E00768AF43F1
:101560000760F0BD1AB1838A0B43838202E0838A4D
:101570008B4383827047028A4FF6F0731A400282CF
:10158000028A0A430282704782894FF2FF731A402F
:10159000828182890A438281704721B1828942F027
:1015A0000202828104E082894FF6FD731A40828133
:1015B0007047028A4FF6DF731A400282028A0A439A
:1015C0000282704721B1028A42F48042028204E022
:1015D000028A4BF6FF731A4002827047C1F3080279
:1015E0008280704701468888C0F30800704781896F
:1015F00041F0010181817047028BD2B20283028BDC
:1016000042EA012202837047028B02F47F42028386
:10161000028B0A430283704721B1828A42F0200282
:10162000828204E0828A4FF6DF731A40828270471A
:1016300021B1828A42F01002828204E0828A4FF64F
:10164000EF731A408282704721B1828A42F0080209
:10165000828204E0828A4FF6F7731A4082827047D2
:1016600021B1828942F40042828103E08289C2F37F
:101670000E028281704721B1828A42F40062828226
:1016800004E0828A4FF2FF731A4082827047828A96
:101690004FF6FB731A408282828A0A438282704725
:1016A00021B1828A42F00202828204E0828A4FF6ED
:1016B000FD731A408282704702460020B1F5007F18
:1016C00000D100BF13880B400BB1012000E00020C7
:1016D000704701F40072B2F5007F00D100BFCA4329
:1016E0000280704770B502460024002300250020C8
:1016F00040F66A16B14200D100BFC1F3421501F0B5
:101700001F03012606FA03F3012D02D19689334007
:1017100006E0022D02D1168A334001E0968A33405A
:101720000C12012606FA04F41688344013B10CB1E9
:10173000012000E0002070BD10B50022002340F61B
:101740006A14A14200D100BF0A1201249440A3B23E
:10175000DC43048010BD000000380140004400401C
:1017600000480040004C0040005000400CB50020F4
:10177000019000906C48006840F480306A4908602D
:1017800000BF6948006800F4003000900198401CD8
:101790000190009818B90198B0F5A06FF1D1624896
:1017A000006800F4003010B10120009001E000203A
:1017B00000900098012843D15C48006840F0100078
:1017C0005A4908600846006820F00300086008468F
:1017D000006840F002000860534840685249486081
:1017E0000846406848600846406840F480604860A9
:1017F0000846406820F47C1048600846406840F481
:10180000E81048600846006840F08070086000BF3B
:101810004548006800F000700028F9D04248406850
:1018200020F00300404948600846406840F002004C
:10183000486000BF3C48406800F00C000828F9D11F
:101840000CBD10B5FFF792FF10BD10B5364800680B
:1018500040F00100344908600846406834490840B7
:101860003149486008460068324908402E490860FE
:101870000846006820F4802008600846406820F48C
:10188000FE0048604FF41F008860FFF7DAFF4FF05A
:1018900000602949086010BD10B500210020002219
:1018A000214B5B6803F00C0121B1042906D0082903
:1018B00028D107E0214B224C236027E01F4B204C0E
:1018C000236023E0184B5B6803F47010164B5B68D1
:1018D00003F48032022303EB904022B9194B4343B7
:1018E000174C23600DE0104B5B6803F4003323B109
:1018F000144B4343124C236003E0104B4343104C02
:10190000236003E00D4B0E4C236000BF00BF064B6D
:101910005B68C3F303130C4CE15C094B1B68CB40C1
:10192000074C236010BD0000001002400020024060
:101930000000FFF8FFFFF6FE08ED00E000127A005D
:101940001400002000093D00180000207047704777
:101950007047754600F02CF8AE46050069465346C0
:1019600020F00700854618B020B5FEF73DFCBDE825
:1019700020404FF000064FF000074FF000084FF0F6
:10198000000B21F00701AC46ACE8C009ACE8C00987
:10199000ACE8C009ACE8C0098D46704710B50446F4
:1019A000AFF300802046BDE81040FEF708BC000001
:1019B000004870472800002001491820ABBEFEE710
:1019C0002600020070470000E8190008000000200F
:1019D000280000006C010008101A000828000020F0
:1019E00060060000880100080000000001020304F6
:1019F00001020304060708090204060800A24A04BB
:101A000000000000000000000102030406070809AE
:0400000508000131BD
:00000001FF
